:020000040000FA
:101000001008002019120000211200002312000015
:101010002512000027120000291200000000000025
:101020000000000000000000000000002B12000083
:101030002D120000000000002F12000031120000ED
:10104000331200003312000033120000331200008C
:1010500033120000000000003312000033120000C1
:10106000331200003312000033120000331200006C
:10107000331200003312000033120000331200005C
:10108000331200003312000033120000331200004C
:10109000331200003312000033120000331200003C
:1010A00033120000331200000000000000000000B6
:1010B00033120000331200000000000000000000A6
:1010C0000000000000000000000000000000000020
:1010D0000000000000000000000000000000000010
:1010E0000000000000000000000000000000000000
:1010F00000000000000000000000000000000000F0
:1011000000000000000000000000000000000000DF
:1011100000000000000000000000000000000000CF
:1011200000000000000000000000000000000000BF
:1011300000000000000000000000000000000000AF
:10114000000000000000000000000000000000009F
:10115000000000000000000000000000000000008F
:10116000000000000000000000000000000000007F
:10117000000000000000000000000000000000006F
:10118000000000000000000000000000000000005F
:10119000000000000000000000000000000000004F
:1011A000000000000000000000000000000000003F
:1011B000000000000000000000000000000000002F
:1011C000000000000000000000000000000000001F
:1011D000000000000000000000000000000000000F
:1011E00000000000000000000000000000000000FF
:1011F00000000000000000000000000000000000EF
:10120000DFF810D000F01AF8004800476115000020
:10121000AFF30080100800200648804706480047CA
:10122000FEE7FEE7FEE7FEE7FEE7FEE7FEE7FEE796
:10123000FEE7FEE76112000001120000064C074DB8
:1012400006E0E06840F0010394E807009847103496
:10125000AC42F6D3FFF7D8FF20160000401600007E
:1012600070B54FF080520025D2E94C100E2905D1FF
:10127000D2F84432764CC3F342332360082901D0BC
:101280000E2908D14FF08043C3F80C51C3F8105118
:101290006F4B1B1F1D60082901D00E2955D16D4BC6
:1012A0001B686D4C23606B4B1B1D1B68241D23604A
:1012B000684B08331B68241D2360664B0C331B6886
:1012C000241D2360634B10331B68241D2360614B76
:1012D00014331B68241D23605E4B18331B685E4C5F
:1012E000203423605B4B1C331B68241D2360594B47
:1012F00020331B68241D2360564B24331B68241D98
:101300002360544B28331B68241D2360514B2C331E
:101310001B68241D23604F4B30331B684E4C4034F8
:1013200023604C4B34331B68241D2360494B3833F6
:101330001B68241D2360474B3C331B68241D23601E
:10134000444B40331B68241D2360082904D103004B
:1013500002D1434C414B2360082904D1030002D140
:10136000404CFB232360404B082907D1040005D1E2
:1013700092F858421A6864F303021A60082904D1EB
:10138000020002D1394C8A012260082901D00E29BD
:1013900006D1374A1468E40702D06FF001041460E4
:1013A0000E2903D1186840F00F00186000F0F0F823
:1013B0004FF0102420B1D4F8080225491C310860F0
:1013C00000F0E6F82B4AB8B1D4F80001401C03D075
:1013D000D4F80401401C0FD1012000F00BF9C4F82F
:1013E000005110680028FCD0C4F80451106800288F
:1013F000FCD0002000F0FEF8D4F80002002803DB47
:10140000D4F8040200280EDA012000F0F3F81220CC
:10141000C4F8000211680029FCD0C4F80402106866
:101420000028FCD00BE094F80C02C0070CD001207F
:1014300000F0E0F8C4F80C5210680028FCD000203E
:1014400000F0D8F800F01CF80C490B48086070BD9B
:101450003C0500400404001020C500404881030002
:101460008C56004018F50040E40E004040960240C3
:101470000004004000E401400090D0030800002078
:10148000BFF34F8F05480168054A01F4E06111433D
:101490000160BFF34F8F00BFFDE700000CED00E0DF
:1014A0000400FA0502E008C8121F08C1002AFAD198
:1014B00070477047002001E001C1121F002AFBD1D4
:1014C000704700002DE9FC410646C0074FF00005BB
:1014D0000ED0104F00240122385D009500231146E4
:1014E000019500F069F8641C042CF4D300F02EF888
:1014F000B0070DD5074E0024361D0022305D0323B2
:1015000000951146019500F057F8641C042CF4D3A3
:10151000BDE8FC811616000007490B5C4FF0A041A6
:10152000D1F804250120984020EA0203C1F80835CB
:101530001040C1F80C057047161600000249085CFF
:10154000012100F04BB800001616000010B5002471
:101550002046FFF7F3FF641C042CF9D310BD0000F4
:101560000120FFF7AFFF094C4FF4FA784FF47A47A8
:1015700000263046FFF7D0FF4546611C38468847B5
:101580006D1EFAD1761C042EF3DBF1E71016000075
:101590004FF08050D0E94C10082902D00E2903D01A
:1015A00008E0042804D805E0002802D0012800D073
:1015B000012070470020704770B541EA4201DDE923
:1015C00004564FF0A04441EA830141EA052104EBAF
:1015D000800041EA0641C0F8001770BD01224FF0BB
:1015E000A043824011B1C3F808257047C3F80C2509
:1015F0007047000003490860034801680029FCD0D7
:101600007047000004E5014000E4014000000000D4
:101610000338FDD870470D0E0F100B0C1819000081
:10162000401600000800002004000000A414000080
:10163000441600000C00002004080000B414000050
:041640000090D00343
:0400000500001201E4
:00000001FF
